{
  "contractName": "SpecialNumber",
  "abi": [
    {
      "inputs": [],
      "payable": false,
      "stateMutability": "nonpayable",
      "type": "constructor"
    },
    {
      "constant": true,
      "inputs": [],
      "name": "mainNumber",
      "outputs": [
        {
          "internalType": "uint256",
          "name": "",
          "type": "uint256"
        }
      ],
      "payable": false,
      "stateMutability": "view",
      "type": "function"
    },
    {
      "constant": false,
      "inputs": [],
      "name": "incrementMainNumber",
      "outputs": [],
      "payable": false,
      "stateMutability": "nonpayable",
      "type": "function"
    }
  ],
  "bytecode": "0x608060405234801561001057600080fd5b506000808190555060a9806100266000396000f3fe6080604052348015600f57600080fd5b506004361060325760003560e01c8063778559521460375780639432904414603f575b600080fd5b603d605b565b005b6045606e565b6040518082815260200191505060405180910390f35b6000808154809291906001019190505550565b6000548156fea265627a7a7231582038f24232be2fa7cc7467b14b3f73c0470032c08198c74cde27a79b80246ed00664736f6c63430005100032",
  "source": "pragma solidity >0.5.1 <0.8.0;\r\n\r\ncontract SpecialNumber {\r\n  uint public mainNumber;\r\n\r\n  constructor() public {\r\n    mainNumber = 0;\r\n  }\r\n\r\n  function incrementMainNumber() public {\r\n    mainNumber++;\r\n  }\r\n}\r\n",
  "sourcePath": "C:/Users/jdink/Desktop/development/del-driz/contracts/SpecialNumber.sol",
  "compiler": {
    "name": "solc",
    "version": "0.5.16+commit.9c3226ce.Emscripten.clang"
  },
  "schemaVersion": "3.2.3",
  "updatedAt": "2020-10-11T04:46:45.680Z",
  "networkType": "ethereum",
  "devdoc": {
    "methods": {}
  },
  "userdoc": {
    "methods": {}
  }
}